:100000000C9462000C948A000C948A000C948A0070
:100010000C948A000C948A000C948A000C945A0C5C
:100020000C948A000C948A000C948A000C948A0028
:100030000C948A000C948A000C948A000C948A0018
:100040000C94100C0C948A000C94DE0B0C94B80BDE
:100050000C948A000C948A000C948A000C948A00F8
:100060000C948A000C948A000000000023002600F3
:10007000290000000000240027002A0000000000E2
:10008000250028002B0004040404040404040202D4
:100090000202020203030303030301020408102007
:1000A0004080010204081020010204081020000012
:1000B0000008000201000003040700000000000027
:1000C0000000AA1511241FBECFEFD8E0DEBFCDBFC0
:1000D00011E0A0E0B1E0E6E5F1E302C005900D9289
:1000E000AE39B107D9F723E0AEE9B1E001C01D9206
:1000F000AC32B207E1F710E0C2E6D0E004C02197CD
:10010000FE010E948F18C136D107C9F70E94110E57
:100110000C94A9180C9400002F923F924F925F927A
:100120006F927F928F929F92AF92BF92CF92DF9207
:10013000EF92FF920F931F93CF93DF9300D000D0E5
:1001400000D0CDB7DEB780E692E09093B701809300
:10015000B60180915D0290E09093B9018093B8015F
:1001600080912A0390E09093BB018093BA01809123
:100170005902853009F06DC6809162029091630248
:10018000885891098D35910588F480915D028430FD
:1001900041F480916402909165028097479708F43A
:1001A00083C080915D02843408F065C080915D0257
:1001B0008A3108F4CCC08091600290916102843F42
:1001C000914080F41092B5011092B4018FEF9FEF2F
:1001D000DC018093B0019093B101A093B201B09380
:1001E000B30146C0809162029091630285974B975C
:1001F00008F0ADC0E6E6F2E082E090E040E050E0DA
:10020000BA018C010F5F1F4F20915D0230E0021791
:1002100013076CF49F0122503109D9012D913C91B3
:10022000275031092730310508F476C0C8010197FD
:10023000959587959093B5018093B4010C972CF414
:100240001092B5011092B40182C04093B001509356
:10025000B1016093B2017093B30184E090E0EAC40D
:100260004093B0015093B1016093B2017093B30118
:100270008BE090E0DFC4809164029091650282542B
:1002800091098E9708F092CF20E030E080E090E076
:10029000DC01F901EA59FD4F408151814950510972
:1002A0004930510588F082CF8091660290916702B3
:1002B0000997099708F075CF1092B5011092B40113
:1002C0008FEF9FEFDC01C8C5F901E859FD4F408170
:1002D0005181475151094231510588F4880F991FC6
:1002E000AA1FBB1F81602C5F3F4F2038310589F664
:1002F00020E230E03093B5012093B401ADC54081D8
:100300005181465051094730510508F04FCF880FB1
:10031000991FAA1FBB1FE7CF2081318123513109CB
:100320002F30310540F4440F551F661F771F416081
:100330000296349666CF208131812A5031092930C6
:10034000310528F4440F551F661F771FF1CF8091A8
:100350005D028A3108F45EC0809160029091610272
:100360008032934008F42ECF809162029091630214
:10037000C697869708F04EC08091640290916502FE
:10038000C697869708F046C0E8E6F2E083E090E082
:1003900040E050E0BA018C010F5F1F4F20915D02D9
:1003A00030E00217130764F49F0122503109D9018C
:1003B0002D913C912C5031092B30310580F0C80132
:1003C0000197959587959093B5018093B4010C970B
:1003D0000CF046CF1092B5011092B4011BC02081E1
:1003E0003181255231092B31310540F4440F551F1D
:1003F000661F771F416002963496CDCF20813181F0
:100400002C5031092A30310528F4440F551F661F3E
:10041000771FF1CF80915D02823208F457C080913E
:100420006202909163020697079708F04FC0E6E6D4
:10043000F2E082E090E040E050E0BA018C010F5F12
:100440001F4F20915D0230E002171307C4F4DF0153
:1004500012972D913C9111972E5131092731310579
:1004600038F5440F551F661F771F41602081318189
:100470003496235031092530310530F1C8010197F8
:10048000959587959093B5018093B40140972CF48E
:100490001092B5011092B40119C04093B00150936D
:1004A000B1016093B2017093B3018CE090E0C2C3DC
:1004B0002D913C912C5031092B30310538F4440FEB
:1004C000551F661F771FD2CF0296B8CF1C821B82A2
:1004D00081E090E09A83898380915D028D3078F489
:1004E0001C821B8281E090E09A8389838091B8010D
:1004F0009091B901181619060CF46CC0C3C049E7F5
:1005000053E0BE016D5F7F4FCE0101960E94990DB1
:10051000892B31F749E753E0BE016D5F7F4FCE0174
:1005200001960E94990D0197D9F649E753E0BE0163
:100530006D5F7F4FCE0101960E94990D892B81F648
:10054000C12CD12C760100E010E080915D0290E09A
:1005500029813A812817390774F549E753E0BE012C
:100560006D5F7F4FCE0101960E94990D5C0149E7B6
:1005700053E0BE016D5F7F4FCE0101960E94990D41
:10058000B1E0AB16B10451F4892B09F0A9CFCC0C22
:10059000DD1CEE1CFF1C6894C0F80AC0AB2809F0F3
:1005A0009FCF019709F09CCFCC0CDD1CEE1CFF1CEB
:1005B0000F5F1F4FCACF1093B5010093B401C092D3
:1005C000B001D092B101E092B201F092B30181E0AA
:1005D00090E030C3E091B601F091B70182E090E085
:1005E0009A8389838281938189974E9708F04AC0C4
:1005F00083E090E09A838983848195810B970A97A1
:1006000008F040C04CEB51E0BE016D5F7F4FCE0162
:1006100001960E94990D892BA9F54CEB51E0BE0182
:100620006D5F7F4FCE0101960E94990D019751F5A4
:10063000C12CD12C760100E010E02091B80130915E
:10064000B90189819A81821793070CF026C14CEB7E
:1006500051E0BE016D5F7F4FCE0101960E94990D62
:100660005C010330110509F0E2C04CEB51E0BE0122
:100670006D5F7F4FCE0101960E94990DA816B906B5
:1006800009F4D5C0E091B601F091B7018281938160
:10069000C6978697E0F4848195814B974597B8F487
:1006A000DF0116967F0126ECE20EF11C20E030E01F
:1006B00040E050E060E070E080E090E00D911C913F
:1006C0001197095011090830110508F4F5C08091FF
:1006D0005D02893370F18281938189579109833555
:1006E000910508F425C125C0D90112966D917C9120
:1006F0001397665171096131710508F045C1D70141
:10070000C601880F991FAA1FBB1F6C017D01689449
:10071000C0F84E5F5F4F2C5F3F4F4B33510509F4DC
:1007200016C1D9016D917C916A50710969307105CA
:10073000D8F280915D02823231F4828193810A97EE
:10074000099708F431C182819381895791098335D2
:100750009105D0F480915D028132B0F08481958161
:10076000CA97899788F49F012A5F3F4FC12CD12CEB
:10077000760143E050E0D9016D917C916A50710996
:100780006930710508F42FC1828193818C549109DD
:10079000C59778F480915D02843031F4848195812D
:1007A0008097479708F482C180915D02843408F0F5
:1007B00064C180915D02863460F1828193810C97DF
:1007C0000B9708F4C1C125C0D90112966D917C9197
:1007D00013976E5171096731710508F0EDC1D701AA
:1007E000C601880F991FAA1FBB1F6C017D01689469
:1007F000C0F84E5F5F4F2C5F3F4F4534510509F401
:10080000BEC1D9016D917C916C5071096B3071053D
:10081000D8F280915D02883508F43DC282819381CF
:10082000855891098B35910508F4D6C134C24CEB3B
:1008300051E0BE016D5F7F4FCE0101960E94990D80
:100840004C010330110569F44CEB51E0BE016D5FC2
:100850007F4FCE0101960E94990D8816990609F0E6
:1008600011CFA114B10459F48A94892809F00ACF50
:10087000CC0CDD1CEE1CFF1C6894C0F80BC0AA94C5
:10088000AB2809F0FFCE892809F0FCCECC0CDD1C8A
:10089000EE1CFF1C0F5F1F4FD0CE1093B5010093CD
:1008A000B401C092B001D092B101E092B201F092D5
:1008B000B30182E090E0BEC112960D911C91139796
:1008C000015111090D30110528F501E00E9444186D
:1008D00021601496AE15BF0509F0F0CE2093B0014B
:1008E0003093B1014093B2015093B30100E20E94F2
:1008F0005F182093AE013093AF0185E090E09093B4
:10090000AD018093AC0180E390E09093B5018093BA
:10091000B40194C112960D911C91139704501109C2
:100920000530110508F0D3CE01E00E944418D1CF64
:1009300084819581CA97899708F0FBCE9F012A5F31
:100940003F4FC12CD12C760143E050E0EACE9F010D
:100950002A583F4FD9012D913C912A503109293015
:10096000310508F0E6CE2CE130E03093B50120935C
:10097000B401C092B001D092B101E092B201F09204
:10098000B3018AE090E056C1D90112966D917C9135
:100990001397665071096730710508F0CACECC0C08
:1009A000DD1CEE1CFF1CB5CE20915D02CF01820F35
:1009B000911D820F911DDC0112978D919C910A97D8
:1009C000099708F0C0CE1092B5011092B4018FEFD4
:1009D0009FEFDC018093B0019093B101A093B2012D
:1009E000B093B30147C0D90112966D917C911397D2
:1009F000665171096131710568F5D701C601880F2B
:100A0000991FAA1FBB1F6C017D016894C0F84E5F3F
:100A10005F4F2C5F3F4F4332510509F0ACCE9F0131
:100A20002A5B3F4FD9012D913C912A503109293041
:100A3000310508F0A9CE20E130E03093B5012093D4
:100A4000B401C092B001D092B101E092B201F09233
:100A5000B30110C0D90112966D917C911397665025
:100A600071096730710508F08FCECC0CDD1CEE1CCF
:100A7000FF1CCDCF86E090E0DDC084819581895454
:100A80009109C39708F095CE9F012A5F3F4FBF01A0
:100A90006A577F4FC12CD12C7601D9014D915C91C1
:100AA0004950510949305105B8F083CE868197816C
:100AB0000997099708F078CE1092B5011092B40109
:100AC0008FEF9FEFDC018093B0019093B101A09371
:100AD000B201B093B301CBC1D90112964D915C9193
:100AE00013974651510941315105F0F4D701C60120
:100AF000880F991FAA1FBB1F6C017D016894C0F865
:100B00002C5F3F4F2617370741F620E230E0309345
:100B1000B5012093B401C092B001D092B101E0922E
:100B2000B201F092B301A3C1D90112964D915C912B
:100B30001397465051094730510508F03ACECC0C76
:100B4000DD1CEE1CFF1CDCCF848195810997099781
:100B500008F05FCE868197818C974F9708F059CE29
:100B60008085918589974D9708F053CE9F01265F28
:100B70003F4FC12CD12C760145E050E042CE9F0181
:100B800026573F4FD9012D913C912C5031092B30E4
:100B9000310508F03ECE20E230E03093B5012093DD
:100BA000B401C092B001D092B101E092B201F092D2
:100BB000B30188E090E03EC0D90112966D917C911E
:100BC0001397695071096930710508F022CECC0C79
:100BD000DD1CEE1CFF1C0DCE848195818254910991
:100BE0008E9708F058C08F01045C1F4F8DE190E094
:100BF00040E050E020915D0230E02450310982173E
:100C00009307FCF00197959587959093B501809394
:100C1000B4018A970CF43FC0052E000C660B770BCD
:100C20004093B0015093B1016093B2017093B3014E
:100C300089E090E09093AD018093AC0181E090E079
:100C400019C1980122503109D9012D913C912950A7
:100C5000310928303105F8F4BC016F5F7F4FD801AE
:100C60002D913C91275031092730310538F4440F3C
:100C7000551F416002960C5F1F4FBCCFD8012D91CC
:100C80003C91285131092231310510F0CB01BACF06
:100C9000440F551FEFCF80915D028032E1F48281D5
:100CA000938106970697B8F48481958109970997EF
:100CB00090F49F012A5F3F4FBF01625C7F4FC12CC0
:100CC000D12C7601D9014D915C91465051094630A5
:100CD000510508F47EC08091B8019091B9019E83BE
:100CE0008D8306970CF4B0C08F010E5F1F4F75EC1B
:100CF000C72E7DE9D72E7CE1E72E71E8F72EE3E0E1
:100D00002E2E312CD80114966D917C911597AD90B3
:100D1000BC9080E090E00E94F6162B013C01B501EA
:100D200080E090E00E94F6164B015C012DEC3CEC5B
:100D30004CE45FE30E94A8179B01AC01C301B20120
:100D40000E94491687FD17C02DEC3CEC4CE45FE394
:100D5000C301B2010E94A8179B01AC01C501B401F7
:100D60000E944916E82F880FFF0BEE27FF0FEE1F9A
:100D7000FF27319602C0E0E0F0E0A701960163E9A9
:100D800071E080E091E00E9415186F01FF0FEE08FE
:100D9000FF08C626D726E826F926BFEF2B1A3B0AFE
:100DA0000E5F1F4FED81FE81E215F30509F0AACF1A
:100DB000C092B001D092B101E092B201F092B301C1
:100DC00080E290E09093B5018093B4018FEF9FEFA4
:100DD00031CFD90112964D915C9113974951510928
:100DE0004331510508F5D701C601880F991FAA1F85
:100DF000BB1F6C017D016894C0F82C5F3F4F261724
:100E0000370709F05FCF2EE030E03093B501209333
:100E1000B401C092B001D092B101E092B201F0925F
:100E2000B3018FE090E006CFD90112964D915C910D
:100E30001397495051094930510508F04CCFCC0C5B
:100E4000DD1CEE1CFF1CD9CF82E08093590210926A
:100E50005D0280E090E00EC08093B0019093B101FC
:100E6000A093B201B093B30183E090E0E3CE87E0BA
:100E700090E0E0CE26960FB6F894DEBF0FBECDBF51
:100E8000DF91CF911F910F91FF90EF90DF90CF9066
:100E9000BF90AF909F908F907F906F905F904F909A
:100EA0003F902F900895FC01538D448D252F30E005
:100EB000842F90E0821B930B541710F0CF96089567
:100EC00001970895FC01918D828D981761F0828DB4
:100ED000DF01A80FB11D5D968C91928D9F5F9F736E
:100EE000928F90E008958FEF9FEF0895FC01918D10
:100EF000828D981731F0828DE80FF11D858D90E07D
:100F000008958FEF9FEF0895FC01918D228D892F19
:100F100090E0805C9F4F821B91098F739927089501
:100F2000FC01848DDF01A80FB11DA35ABF4F2C9186
:100F3000848D90E001968F739927848FA689B78955
:100F40002C93A089B1898C91837080648C93938D4C
:100F5000848D981306C00288F389E02D80818F7DEF
:100F600080830895EF92FF920F931F93CF93DF93A7
:100F7000EC0181E0888F9B8D8C8D981305C0E889EA
:100F8000F989808185FD26C0F62E0B8D10E00F5F5C
:100F90001F4F0F731127E02E8C8DE8120CC00FB677
:100FA00007FCFACFE889F989808185FFF5CFCE016A
:100FB0000E949007F1CF8B8DFE01E80FF11DE35ADF
:100FC000FF4FF0829FB7F8940B8FEA89FB898081ED
:100FD00080620AC09FB7F894EE89FF896083E88930
:100FE000F98980818370806480839FBF81E090E075
:100FF000DF91CF911F910F91FF90EF900895CF93C4
:10100000DF93EC01888D8823C9F0EA89FB89808110
:1010100085FD05C0A889B9898C9186FD0FC00FB6E2
:1010200007FCF5CF808185FFF2CFA889B9898C9123
:1010300085FFEDCFCE010E949007E7CFDF91CF91E2
:1010400008958CEB91E00E94840721E0892B09F43C
:1010500020E0822F089580E090E0892B29F00E9403
:10106000210881110C9400000895CF92DF92EF9235
:10107000FF920F931F93CF93DF936C017A018B0143
:10108000C0E0D0E0CE15DF0581F0D8016D918D0173
:10109000D601ED91FC910190F081E02DC6010995FA
:1010A000892B11F02196EECF7E01C701DF91CF9100
:1010B0001F910F91FF90EF90DF90CF9008950895CA
:1010C00080E090E00895833081F028F4813099F039
:1010D0008230A1F008958730A9F08830B9F08430CB
:1010E000D1F4809180008F7D03C0809180008F7744
:1010F00080938000089584B58F7702C084B58F7D7A
:1011000084BD08958091B0008F7703C08091B000B6
:101110008F7D8093B00008951F93CF93DF93282F86
:1011200030E0F901E255FF4F8491F901E656FF4F97
:10113000D491F901EA57FF4FC491CC23C1F0162F87
:1011400081110E946308EC2FF0E0EE0FFF1FE458BE
:10115000FF4FA591B4919FB7F894111104C08C91E1
:10116000D095D82302C0EC91DE2BDC939FBFDF919A
:10117000CF911F910895CF93DF9390E0FC01E65645
:10118000FF4F2491FC01EA57FF4F8491882361F1BE
:1011900090E0880F991FFC01EE58FF4FC591D49144
:1011A000FC01E458FF4FA591B491611109C09FB7AC
:1011B000F8948881209582238883EC912E230BC09C
:1011C000623061F49FB7F8948881322F3095832381
:1011D0008883EC912E2B2C939FBF06C08FB7F89479
:1011E000E8812E2B28838FBFDF91CF9108953FB7E1
:1011F000F8948091A3019091A401A091A501B091D0
:10120000A60126B5A89B05C02F3F19F00196A11D88
:10121000B11D3FBFBA2FA92F982F8827820F911D8C
:10122000A11DB11DBC01CD0142E0660F771F881FD3
:10123000991F4A95D1F708958F929F92AF92BF92CE
:10124000CF92DF92EF92FF926B017C010E94F70830
:101250004B015C01C114D104E104F104F1F00E94DE
:10126000F708DC01CB0188199909AA09BB09883E56
:101270009340A105B10570F321E0C21AD108E1083D
:10128000F10888EE880E83E0981EA11CB11CC114E1
:10129000D104E104F10419F7DDCFFF90EF90DF9066
:1012A000CF90BF90AF909F908F9008950E94A41808
:1012B0000E948C00892B09F446C08091B001909166
:1012C000B101A091B201B091B3018F3F9F4FAF4FD9
:1012D000BF4F81F48091A8019091A901A091AA012A
:1012E000B091AB018093B0019093B101A093B20192
:1012F000B093B3018091B0019091B101A091B2017E
:10130000B091B3018D35924AAF4FB10539F480E504
:1013100091E00E948B0DE0E0F0E009958091B00132
:101320009091B101A091B201B091B3018093A80155
:101330009093A901A093AA01B093AB0182E080939E
:10134000590210925D0208950F931F93CF93DF937C
:1013500060E085E00E948C080091A701C0E0D0E029
:1013600010E0B8010C2E02C0759567950A94E2F75B
:10137000617084E00E948C0861E086E00E948C0825
:1013800060E086E00E948C082196C830D10549F7BC
:1013900061E085E0DF91CF911F910F910C948C0853
:1013A000CF93DF93EC010E945809D7FF17C0C09577
:1013B000D09581E090E0A0E0B0E004C0880F991FD4
:1013C000AA1FBB1FCA95D2F780959091A7018923C8
:1013D0008093A701DF91CF910C94A40960E08C2F3A
:1013E000DF91CF910C948C080F931F93CF93DF93D1
:1013F000C2E0D1E000E010E0FE01E00FF11F8081CB
:1014000091810E94D0090E5F1F4F08301105A1F78E
:101410002C9681E0CE33D80769F7DF91CF911F91E9
:101420000F910895CF93DF93EC010E945809D7FFE5
:1014300016C0C095D09581E090E0A0E0B0E004C077
:10144000880F991FAA1FBB1FCA95D2F72091A70129
:10145000822B8093A701DF91CF910C94A40961E0C6
:101460008C2FDF91CF910C948C080F931F93CF9307
:10147000DF93C2E0D1E000E010E0FE01E00FF11FD9
:10148000808191810E94120A0E5F1F4F0830110562
:10149000A1F72C9681E0CE33D80769F7DF91CF9181
:1014A0001F910F9108958F929F92BF92CF92DF92DA
:1014B000EF92FF920F931F93CF93DF936C01B62EA1
:1014C00041305105A9F14230510509F45AC0452B6C
:1014D00009F07FC022E0822E21E0922EC0E0D0E011
:1014E000740100E010E0CE01801B910B97FF03C058
:1014F0009195819591098C159D0551F4F701808195
:101500009181BB2019F00E94120A02C00E94D009EA
:101510000F5F1F4FF2E0EF0EF11C0430110519F7B9
:1015200021968CE0880E911CC430D105C9F651C0BB
:1015300092E0892E91E0992EC0E0D0E0740100E0A5
:1015400010E0C8018C1B9D0BC816D90651F4F70199
:1015500080819181BB2019F00E94120A02C00E9472
:10156000D0090F5F1F4FF2E0EF0EF11C04301105A0
:1015700041F721968CE0880E911CC430D105F1F61C
:1015800028C082E0882E81E0982EC0E0D0E074016F
:1015900000E010E0CE01801B910BC816D90651F473
:1015A000F70180819181BB2019F00E94120A02C0CC
:1015B0000E94D0090F5F1F4FF2E0EF0EF11C0430C4
:1015C000110541F721968CE0880E911CC430D1059D
:1015D000F1F6DF91CF911F910F91FF90EF90DF9087
:1015E000CF90BF909F908F900895CF92DF92EF920F
:1015F000FF92CF93DF93C3E0D0E06C01990FEE0828
:10160000FF08C701B6010E941C0942E050E060E0FB
:10161000CE010E94530A2197A1F7DF91CF91FF904D
:10162000EF90DF90CF900895CF92DF92EF92FF92EC
:10163000CF93DF93C3E0D0E06C01990FEE08FF0871
:10164000C701B6010E941C0941E050E060E0CE01F4
:101650000E94530A2197A1F7DF91CF91FF90EF905D
:10166000DF90CF900895CF92DF92EF92FF92CF93C9
:10167000DF936C010E94F409C3E0D0E00D2C000C54
:10168000EE08FF0841E050E061E0CE010E94530AFD
:10169000C701B6010E941C092197A1F7DF91CF91E4
:1016A000FF90EF90DF90CF900895CF92DF92EF926E
:1016B000FF92CF93DF93C0E0D0E06C01990FEE086A
:1016C000FF08C701B6010E941C0940E050E060E03D
:1016D000CE010E94530A2196C430D10591F7DF91C3
:1016E000CF91FF90EF90DF90CF900895EF92FF920F
:1016F0000F931F93CF93DF9362E370E00E9425184E
:101700007B01C2E0D1E000E010E0FE01E00FF11F3C
:10171000808191810E94120A6AE070E080E090E08E
:101720000E941C0981E0E816F10471F462E370E0A4
:1017300080E090E00E941C09DF91CF911F910F91F2
:10174000FF90EF900C94F40981E0E81AF1080E5F25
:101750001F4F08301105C9F62C9681E0CE33D8070B
:1017600091F6DF91CF911F910F91FF90EF90089527
:101770001F920F920FB60F9211242F933F934F9306
:101780005F936F937F938F939F93AF93BF93EF93E9
:10179000FF938CEB91E00E949007FF91EF91BF9136
:1017A000AF919F918F917F916F915F914F913F91F9
:1017B0002F910F900FBE0F901F9018951F920F92B0
:1017C0000FB60F9211242F938F939F93EF93FF9354
:1017D000E091CC01F091CD018081E091D201F091B6
:1017E000D30182FD12C090818091D5018F5F8F73EC
:1017F0002091D601821751F0E091D501F0E0E45438
:10180000FE4F958F8093D50101C08081FF91EF91AC
:101810009F918F912F910F900FBE0F901F90189551
:101820001F920F920FB60F9211242F933F938F9315
:101830009F93AF93BF9380919F019091A001A0913E
:10184000A101B091A20130919E0123E0230F2D3719
:1018500020F40196A11DB11D05C026E8230F0296B4
:10186000A11DB11D20939E0180939F019093A00123
:10187000A093A101B093A2018091A3019091A40132
:10188000A091A501B091A6010196A11DB11D809363
:10189000A3019093A401A093A501B093A601BF91C9
:1018A000AF919F918F913F912F910F900FBE0F900D
:1018B0001F9018951F920F920FB60F9211242F931D
:1018C0003F934F935F936F937F938F939F93AF93C8
:1018D000BF93CF93DF93EF93FF9320915A0230E0B1
:1018E000F901E255FF4F8491F901E656FF4FD4917B
:1018F000F901EA57FF4FC491CC2379F081110E947E
:101900006308EC2FF0E0EE0FFF1FE859FF4FA591A1
:10191000B491EC91ED2381E009F480E020915E0226
:1019200030915F022F5F3F4F30935F0220935E0242
:1019300090915D02953618F096E09093590290913F
:1019400059029430C9F128F4923069F09330D1F003
:101950005EC0953009F451C0963009F058C091E04E
:1019600090932A0351C0811152C020915E023091A0
:101970005F022436310508F442C010922A03109207
:101980005D021CC0813009F042C0E0915D0291E02F
:101990009E0F90935D02F0E020915E0230915F0215
:1019A000EE0FFF1FE75AFD4F3087278310925F022B
:1019B00010925E0294E029C0811117C0E0915D028F
:1019C00091E09E0F90935D02F0E020915E023091D5
:1019D0005F02EE0FFF1FE75AFD4F308727831092FB
:1019E0005F0210925E0293E010C020915E0230917F
:1019F0005F022536310558F007C0811108C01092EA
:101A00005F0210925E0203C095E09093590290919C
:101A10005C029923B9F081110AC080915B0288238E
:101A200021F080915B0261E009C02D9A0BC080918A
:101A30005B02882331F080915B0260E00E948C0899
:101A400001C02D98FF91EF91DF91CF91BF91AF91A0
:101A50009F918F917F916F915F914F913F912F91C6
:101A60000F900FBE0F901F901895CF92DF92EF92BC
:101A7000FF92CF93DF93EC01072E000C880B990B9C
:101A80000E94F8166B017C0120E030E040E45FE347
:101A90000E94A81720E030E048E452E40E944E166D
:101AA0000E94C016C617D707D4F020E030E040EA05
:101AB0005FE3C701B6010E94A81720E030E048E4C8
:101AC00052E40E944E1620E030E040E85FE30E94BE
:101AD000DD150E94C01621E06C177D070CF420E094
:101AE000822F90E0DF91CF91FF90EF90DF90CF9029
:101AF0000895009769F0FC0101900020E9F7319703
:101B0000AF01481B590BBC018CEB91E00C943508DC
:101B100080E090E00895CF93DF930E94790DEC016F
:101B200084E591E00E94790D8C0F9D1FDF91CF918C
:101B300008958F929F92AF92BF92CF92DF92EF92D1
:101B4000FF920F931F93CF93DF93FC01208131818C
:101B5000E091B801F091B9012E173F070CF04FC08A
:101B6000F901EE0FFF1FA091B601B091B701EA0F86
:101B7000FB1FA080B180217033276901F1E0CF26DF
:101B8000232B19F42CE93FEF02C024E630E07A0160
:101B90008B01EC014901840E951EB401C5010E9420
:101BA000350D892B99F48E0C9F1CB401C5010E9440
:101BB000350D892B71F4B701680D791DC5010E949F
:101BC000350D892BF9F023E030E005C021E030E04D
:101BD00002C022E030E0F8018081918101968217F5
:101BE00093071CF49183808308C0F801118210824E
:101BF00088819981019699838883C60105C081E017
:101C000090E002C08FEF9FEFDF91CF911F910F9176
:101C1000FF90EF90DF90CF90BF90AF909F908F900C
:101C20000895CF93DF9300D000D0CDB7DEB778947E
:101C300084B5826084BD84B5816084BD85B58260D1
:101C400085BD85B5816085BD80916E008160809382
:101C50006E001092810080918100826080938100EB
:101C600080918100816080938100809180008160FB
:101C7000809380008091B10084608093B100809156
:101C8000B00081608093B00080917A00846080937E
:101C90007A0080917A00826080937A0080917A0045
:101CA000816080937A0080917A00806880937A00C6
:101CB0001092C100F89482E08093B0008093B1004C
:101CC00094E69093B3001092B200809370007894E1
:101CD0008093590210925D0280915A0260E00E9446
:101CE000BB0881E080935C0261E08DE00E94BB084C
:101CF00061E085E00E94BB0861E084E00E94BB08CF
:101D000061E086E00E94BB081A82198289819A816B
:101D1000079721F061E089810E94BB08E981FA817F
:101D20003196FA83E983719789F71092A7010E948F
:101D3000A4094EE3C42E41E0D42E82E091E09A83C0
:101D4000898300E010E0E981FA81E00FF11FE08073
:101D5000F180C7010E94120A65E070E080E090E027
:101D60000E941C09C7010E94D0090E5F1F4F083056
:101D7000110549F7E981FA813C96FA83E983CE1689
:101D8000DF06F9F612E066E68CEB91E00E94B207FE
:101D900084E591E00E94790D0E948C00892B09F462
:101DA000D6C68091B0019091B101A091B201B091DD
:101DB000B3018F3F9F4FAF4FBF4F81F48091A80178
:101DC0009091A901A091AA01B091AB018093B001BB
:101DD0009093B101A093B201B093B3018091B0018F
:101DE0009091B101A091B201B091B3018D3922E679
:101DF00092072FEFA207B10509F4B5C008F057C04C
:101E00008F3CF0E39F07FFEFAF07B10509F4D9C09E
:101E100018F58F3EE0E19E07EFEFAE07B10509F43C
:101E200075C648F48D3F9240AF4FB10509F07BC6AF
:101E30008FE691E076C6873EE8E19E07EFEFAE07BA
:101E4000B10509F4C5C08D3D9242AF4FB10509F00F
:101E50006AC68AE691E065C6853B2AE492072FEFC1
:101E6000A207B10509F458C688F4873CF8E39F0738
:101E7000FFEFAF07B10509F44CC68D3B9244AF4F5D
:101E8000B10509F050C688E991E04BC68D3AE2E50C
:101E90009E07EFEFAE07B10509F441C6853A9A45B2
:101EA000AF4FB10509F03FC686E991E03AC68D35DE
:101EB00022EA92072FEFA207B10509F44CC018F5EA
:101EC0008538FAE79F07FFEFAF07B10509F4DFC1D7
:101ED00048F487399846AF4FB10509F024C689E721
:101EE00091E071C08F36F0E99F07FFEFAF07B105B2
:101EF00009F44FC087369849AF4FB10509F013C6B2
:101F00008BE791E00EC68D33E2EC9E07EFEFAE0754
:101F1000B10561F180F4873528EA92072FEFA20717
:101F2000B105A1F18F34904BAF4FB10509F0FBC55E
:101F300080E891E0F6C58F31F0EE9F07FFEFAF0725
:101F4000B105B9F08D31924EAF4FB10509F0EBC537
:101F50008EE591E0E6C580E591E00E948B0DE0E022
:101F6000F0E00995E0C587E591E0DBC58EE691E0FC
:101F7000D8C585E791E00E948B0D8091000190917A
:101F8000010183339105B4F0C29710C082E791E05C
:101F9000C8C58AE591E00E948B0D80910001909167
:101FA0000101883EF3E09F072CF4C2969093010153
:101FB0008093000180910001909101010E94760BB5
:101FC000B2C58CE891E00E948B0D0E94F409ABC56C
:101FD0008EE891E00E948B0D8091000190910101AB
:101FE0009A8389834C01990FAA08BB0832E3C32E58
:101FF00031E0D32E0E94F40900E010E0C501B401E5
:102000000E941C0940E050E061E0C8010E94530AB0
:102010000F5F1F4F0430110589F789819A810E9453
:10202000550B0E94F40903E010E0C501B4010E94C1
:102030001C0940E050E061E0C8010E94530A0150D1
:10204000110998F702E011E0E12CF12CF801EE0DF6
:10205000FF1D808191810E94120AE2E0EE0EF11CC8
:10206000F8E0EF16F10491F7045F1F4FC016D10698
:1020700059F703E010E0C501B4010E941C0940E0DB
:1020800050E060E0C8010E94530A0150110998F71E
:102090000E94F409C501B4010E941C0940E050E00F
:1020A00061E083E090E00E94530AC501B4010E9400
:1020B0001C0940E050E061E081E090E00E94530A9A
:1020C000C501B4010E941C0940E050E061E082E0DB
:1020D00090E00E94530AC501B4010E941C0940E02F
:1020E00050E061E080E090E00E94530AC501B40135
:1020F0000E941C0940E050E060E081E090E00E9416
:10210000530AC501B4010E941C0940E050E060E0A0
:1021100083E090E00E94530AC501B4010E941C09AB
:1021200040E050E060E080E090E00E94530AC5018A
:10213000B4010E941C0940E050E060E082E090E0C1
:102140000E94530A89819A810E94330B03E010E0B8
:1021500042E050E061E0C8010E94530AC501B401A9
:102160000E941C090150110999F740E050E061E01C
:1021700080E090E00E94530A89819A810E94140BAA
:1021800089819A810E94F50AC501B4010E941C0947
:1021900040E050E060E080E090E00E94530A8981D6
:1021A0009A810E94330B40E050E061E080E090E0D3
:1021B0000E94530AC501B4010E941C0901E010E00D
:1021C00042E050E061E0C8010E94530AC501B40139
:1021D0000E941C090F5F1F4F0430110589F7898188
:1021E0009A810E94F50AC501B4010E941C0940E0D1
:1021F00050E060E080E090E00E94530A01E010E0CF
:10220000C501B4010E941C0941E050E060E0C80132
:102210000E94530A0F5F1F4F0430110589F703E036
:1022200010E0C501B4010E941C0942E050E061E0E9
:10223000C8010E94530A0150110999F7C501B40160
:102240000E941C0940E050E061E080E090E00E94C4
:10225000530AC501B4010E941C0901E010E041E0ED
:1022600050E061E0C8010E94530AC501B4010E9418
:102270001C090F5F1F4F0430110589F789819A816E
:102280000E94140B89819A810E94550BB3CE80E97C
:1022900091E00E948B0D2091000130910101C90154
:1022A0006AE070E00E9425186B01C90164E170E0EA
:1022B0000E9425180D2C000CEE08FF084B01770F2B
:1022C000AA08BB080E94F40982E091E09A838983FE
:1022D00000E010E000FD2CC023E0622E712CF30121
:1022E000EE0FFF1F89819A81E80FF91F808191818C
:1022F0000E94120AC701B6010E941C0991E0691AE6
:10230000710868F70F5F1F4F89819A810C969A8335
:10231000898305301105F1F60E94350A82E391E0C8
:102320009A8389833C01E4E0F0E0FC83EB8316C0F0
:10233000612C712CE981FA81E60DF71D8081918174
:102340000E94120AC701B6010E941C0992E0690EA0
:10235000711CE8E06E16710469F7D4CF0B811C8103
:1023600001701127FB81F0FD27C0F301E00FF11F81
:10237000808191810E94D009C501B4010E941C098D
:102380000E5F1F4F0830110581F78B819C810197EB
:102390009C838B839CE0691A7108EB81FC813196E8
:1023A000E9F60E94F409A8E02A2EA1E03A2E3101B4
:1023B000B3E04B2E512C13C003E010E0F801EE0FF8
:1023C000FF1FE60DF71D808191810E94D009C50194
:1023D000B4010E941C090150110980F7D6CF40FCBE
:1023E0002AC08301E5E0F0E0FC83EB83F80180A9DB
:1023F00091A90E94120AC701B6010E941C098B8193
:102400009C8101979C838B830C501109892B71F758
:1024100091E0491A5108E2E06E1A7108FFEF4F1679
:102420005F06E9F60E94350AF2E04F2EF1E05F2EDA
:10243000612C712C16C01C821B82EB81FC81E60D85
:10244000F71D808191810E94120AC701B6010E9486
:102450001C098B819C810C969C838B83CC9769F79C
:10246000D7CFF301E170FF27FC83EB8360FC26C02C
:10247000EB81FC81E40DF51D808191810E94D009E2
:10248000C501B4010E941C098B819C810C969C8320
:102490008B83CC9769F79FEF691A790AE2E04E0EB9
:1024A000511CF4E06F167104E1F60E94F409E2E0B9
:1024B0006E2EE1E07E2E1C821B8218C0820185E018
:1024C00090E09C838B83F80180A991A90E94D00998
:1024D000C501B4010E941C098B819C8101979C83DA
:1024E0008B830C501109892B71F7D5CF0B811C817F
:1024F000017011279B8190FD25C0F301E00FF11FB2
:10250000808191810E94120AC701B6010E941C09B4
:102510000E5F1F4F0A30110581F7EB81FC81319668
:10252000FC83EB83FCE06F0E711C8B819C81059713
:10253000E9F60E94350AE2E3F1E0FC83EB8304E074
:1025400010E013C004E010E0F801EE0FFF1FE60DED
:10255000F71D808191810E94120AC701B6010E9475
:102560001C090150110980F7D8CF00FD2AC063E093
:10257000662E712CF301EE0FFF1F8B819C81E80FFB
:10258000F91F808191810E94D009C501B4010E9488
:102590001C0991E0691A710868F7015011098B81D3
:1025A0009C810C979C838B830F3F9FEF1907E9F663
:1025B0000E94F40942E0442E41E0542E612C712C1B
:1025C00016C0612C712CEB81FC81E60DF71D80811A
:1025D00091810E94D009C501B4010E941C09E2E06A
:1025E0006E0E711CF8E06F16710469F7D6CFC30147
:1025F000817099279C838B8360FC27C0EB81FC81D1
:10260000E40DF51D808191810E94120AC701B60177
:102610000E941C09EB81FC813C96FC83EB83FC97B8
:1026200069F7FFEF6F1A7F0A22E0420E511C84E027
:1026300068167104E1F60E94350A28E0622E21E056
:10264000722E33E0432E512C18C08201E5E0F0E0F9
:10265000FC83EB83F80180A991A90E94120AC701AB
:10266000B6010E941C098B819C8101979C838B83FE
:102670000C501109892B71F7D4CF40FC2AC083017B
:10268000E5E0F0E0FC83EB83F80180A991A90E94CA
:10269000D009C501B4010E941C098B819C8101975E
:1026A0009C838B830C501109892B71F791E0491A97
:1026B0005108E2E06E1A7108FFEF4F165F06E9F667
:1026C0000E94F409E2E3F1E0FC83EB8304E010E014
:1026D00016C01C821B82EB81FC81E60DF71D8081F8
:1026E00091810E94D009C501B4010E941C098B810F
:1026F0009C810C969C838B83CC9769F7D7CF00FD88
:102700002AC093E0692E712CF301EE0FFF1F8B811D
:102710009C81E80FF91F808191810E94120AC701F4
:10272000B6010E941C0991E0691A710868F701500E
:1027300011098B819C810C979C838B830F3F9FEFAA
:102740001907E9F60E94350AB2E06B2EB1E07B2E44
:102750001C821B8216C0612C712CEB81FC81E60D62
:10276000F71D808191810E94120AC701B6010E9463
:102770001C09E2E06E0E711CF8E06F16710469F737
:10278000D6CF0B811C81017011272B8120FD26C023
:10279000F301E00FF11F808191810E94D009C501F2
:1027A000B4010E941C090E5F1F4F0A30110581F70A
:1027B0008B819C8101969C838B839CE0690E711CAC
:1027C000EB81FC813597E9F60E94F40968E0462E1A
:1027D00061E0562E73E0672E712C13C004E010E008
:1027E000F801EE0FFF1FE60DF71D808191810E9419
:1027F000D009C501B4010E941C090150110980F7DC
:10280000D7CFC301817099279C838B8360FC26C03E
:10281000EB81FC81E40DF51D808191810E94120AFB
:10282000C701B6010E941C09EB81FC813C96FC8328
:10283000EB83FC9769F7F1E06F1A710822E0421A06
:1028400051088FEF68167806E1F60E94350A52E0CB
:10285000652E51E0752E412C512C18C08201E5E007
:10286000F0E0FC83EB83F80180A991A90E94120A91
:10287000C701B6010E941C098B819C8101979C8332
:102880008B830C501109892B71F7D5CF40FC2AC0DE
:102890008301E5E0F0E0FC83EB83F80180A991A9D6
:1028A0000E94D009C501B4010E941C098B819C8142
:1028B00001979C838B830C501109892B71F79FEF33
:1028C000491A590AE2E06E0E711CF4E04F165104E9
:1028D000E9F60E94F40942E0642E41E0742E412C96
:1028E000512C16C01C821B82EB81FC81E60DF71D6A
:1028F000808191810E94D009C501B4010E941C0908
:102900008B819C810C969C838B83CC9769F7D7CF66
:1029100040FC27C08301E5E0F0E0FC83EB83F80195
:1029200080A991A90E94120AC701B6010E941C0940
:102930008B819C8101979C838B830C501109892B7F
:1029400071F79FEF491A590AE2E06E0E711CF4E02C
:102950004F165104E9F60E94350A33E0632E712CBC
:1029600016C01C821B82EB81FC81E60DF71D808165
:1029700091810E94120AC701B6010E941C098B8135
:102980009C810C969C838B83CC9769F7DACFF301FB
:10299000E170FF27FC83EB8360FC24C0EB81FC81AA
:1029A000E20DF31D808191810E94D009C501B4011F
:1029B0000E941C098B819C810C969C838B83CC97F5
:1029C00069F791E0691A7108E2E02E1A3108FFEF09
:1029D0006F167F06E1F60E94F409E4E0F0E0FC8364
:1029E000EB8318C0810185E090E09C838B83F80124
:1029F00080A991A90E94D009C501B4010E941C09B7
:102A00008B819C8101979C838B830C501109892BAE
:102A100071F7D7CF0B811C8101701127FB81F0FD6D
:102A200026C0E981FA81E00FF11F808191810E9427
:102A3000120AC701B6010E941C090E5F1F4F083021
:102A4000110579F78B819C8101979C838B83E981A8
:102A5000FA813C97FA83E9830196E1F60E94350AF0
:102A6000E2E0F1E0FA83E98300E010E033C003E044
:102A700010E0F801EE0FFF1F89819A81E80FF91F1E
:102A8000808191810E94120AC701B6010E941C092F
:102A90000150110970F7D6CFF301EE0FFF1F8981A6
:102AA0009A81E80FF91F808191810E94D009C501A8
:102AB000B4010E941C0991E0691A710868F70F5F60
:102AC0001F4F89819A810C969A838983053011055D
:102AD00009F4F8CB00FD04C093E0692E712CDCCF23
:102AE000612C712CE981FA81E60DF71D80819181BD
:102AF0000E94D009C501B4010E941C0992E0690E30
:102B0000711CE8E06E16710469F7D9CF82E991E093
:102B100008C084E991E005C08AE991E002C08CE92F
:102B200091E00E948B0D8091B0019091B101A09134
:102B3000B201B091B3018093A8019093A901A09331
:102B4000AA01B093AB011093590210925D020E944A
:102B50002B0819C9ECEBF1E01382128288EE93E0A6
:102B6000A0E0B0E084839583A683B78382E491E0FC
:102B70009183808385EC90E09587848784EC90E056
:102B80009787868780EC90E0918B808B81EC90E03A
:102B9000938B828B82EC90E0958B848B86EC90E01B
:102BA000978B868B118E128E138E148EE9E5F2E0D0
:102BB00087E08183138208955058BB27AA270E947B
:102BC000F4150C946E170E94601738F00E94671776
:102BD00020F039F49F3F19F426F40C945D170EF49D
:102BE000E095E7FB0C945717E92F0E947F1758F3E5
:102BF000BA17620773078407950720F079F4A6F5E2
:102C00000C94A1170EF4E0950B2EBA2FA02D0B01FA
:102C1000B90190010C01CA01A0011124FF27591B21
:102C200099F0593F50F4503E68F11A16F040A22F27
:102C3000232F342F4427585FF3CF46953795279598
:102C4000A795F0405395C9F77EF41F16BA0B620B97
:102C5000730B840BBAF09150A1F0FF0FBB1F661FDE
:102C6000771F881FC2F70EC0BA0F621F731F841F21
:102C700048F4879577956795B795F7959E3F08F047
:102C8000B0CF9395880F08F09927EE0F9795879509
:102C900008950E94331708F481E008950E94621697
:102CA0000C946E170E94671758F00E94601740F04E
:102CB00029F45F3F29F00C94571751110C94A21777
:102CC0000C945D170E947F1768F39923B1F3552385
:102CD00091F3951B550BBB27AA276217730784072F
:102CE00038F09F5F5F4F220F331F441FAA1FA9F3C5
:102CF00035D00E2E3AF0E0E832D091505040E695B3
:102D0000001CCAF72BD0FE2F29D0660F771F881F13
:102D1000BB1F261737074807AB07B0E809F0BB0B06
:102D2000802DBF01FF2793585F4F3AF09E3F51051A
:102D300078F00C9457170C94A2175F3FE4F3983E79
:102D4000D4F3869577956795B795F7959F5FC9F703
:102D5000880F911D9695879597F90895E1E0660F84
:102D6000771F881FBB1F621773078407BA0720F0FD
:102D7000621B730B840BBA0BEE1F88F7E095089566
:102D80000E94C7166894B1110C94A21708950E946E
:102D9000871788F09F5798F0B92F9927B751B0F04F
:102DA000E1F0660F771F881F991F1AF0BA95C9F7CF
:102DB00014C0B13091F00E94A117B1E008950C94B5
:102DC000A117672F782F8827B85F39F0B93FCCF368
:102DD000869577956795B395D9F73EF4909580954C
:102DE000709561957F4F8F4F9F4F0895E89409C06C
:102DF00097FB3EF490958095709561957F4F8F4F2E
:102E00009F4F9923A9F0F92F96E9BB279395F69543
:102E1000879577956795B795F111F8CFFAF4BB0FC1
:102E200011F460FF1BC06F5F7F4F8F4F9F4F16C025
:102E3000882311F096E911C0772321F09EE8872FAF
:102E4000762F05C0662371F096E8862F70E060E06B
:102E50002AF09A95660F771F881FDAF7880F9695E4
:102E6000879597F90895990F0008550FAA0BE0E888
:102E7000FEEF16161706E807F907C0F0121613063C
:102E8000E407F50798F0621B730B840B950B39F47C
:102E90000A2661F0232B242B252B21F408950A26E2
:102EA00009F4A140A6958FEF811D811D089597F922
:102EB0009F6780E870E060E008959FEF80EC0895E0
:102EC00000240A9416161706180609060895002409
:102ED0000A9412161306140605060895092E039483
:102EE000000C11F4882352F0BB0F40F4BF2B11F4F7
:102EF00060FF04C06F5F7F4F8F4F9F4F089557FD56
:102F00009058440F551F59F05F3F71F04795880F57
:102F100097FB991F61F09F3F79F0879508951216EE
:102F200013061406551FF2CF4695F1DF08C016169A
:102F300017061806991FF1CF86957105610508944B
:102F40000895E894BB2766277727CB0197F9089562
:102F50000E94BB170C946E170E94601738F00E94F5
:102F6000671720F0952311F00C9457170C945D17F8
:102F700011240C94A2170E947F1770F3959FC1F340
:102F8000950F50E0551F629FF001729FBB27F00D17
:102F9000B11D639FAA27F00DB11DAA1F649F66276C
:102FA000B00DA11D661F829F2227B00DA11D621FBB
:102FB000739FB00DA11D621F839FA00D611D221F75
:102FC000749F3327A00D611D231F849F600D211D59
:102FD000822F762F6A2F11249F5750409AF0F1F0DC
:102FE00088234AF0EE0FFF1FBB1F661F771F881F45
:102FF00091505040A9F79E3F510580F00C9457170F
:103000000C94A2175F3FE4F3983ED4F3869577952E
:103010006795B795F795E7959F5FC1F7FE2B880FEA
:10302000911D9695879597F90895DB018F939F934E
:103030000E943918BF91AF91A29F800D911DA39F4F
:10304000900DB29F900D1124089597FB072E16F452
:10305000009407D077FD09D00E947B1807FC05D0AB
:103060003EF4909581959F4F0895709561957F4F9F
:1030700008950E949518A59F900DB49F900DA49F50
:10308000800D911D112408950F93083090F0982F12
:10309000872F762F652F542F432F322F222708504A
:1030A000F4CF220F331F441F551F661F771F881F41
:1030B000991F0A95B2F70F91089597FB10F816948F
:1030C00000080F93083098F00850232F342F452F15
:1030D000562F672F782F892F902DF4CF0594979531
:1030E00087957795679557954795379527950A95CD
:1030F000AAF70F910895AA1BBB1B51E107C0AA1F95
:10310000BB1FA617B70710F0A61BB70B881F991F88
:103110005A95A9F780959095BC01CD010895EE0FC1
:10312000FF1F0590F491E02D0994A29FB001B39F79
:10313000C001A39F700D811D1124911DB29F700DC0
:10314000811D1124911D089581E090E0F8940C9464
:06315000A918F894FFCF5E
:10315600F401000001000200030000000000F8FF77
:10316600F9FFFAFFFBFF00000000FCFFFDFFFEFF7A
:10317600FFFF00000000080009000A000B00000025
:1031860000000C000E000F00100000000000000000
:103196000000B20735085307FF0784076207760762
:1031A6004F4646000D0A00566F6C202B20004675D0
:1031B6006E63202F2053746F70007C3C3C003E3EB3
:1031C6007C00566F6C202D200030002045512000D9
:1031D600205374202F205265707420003100320075
:0E31E600330034003500360037003800390061
:107E0000112484B714BE81FFF0D085E080938100F7
:107E100082E08093C00088E18093C10086E0809377
:107E2000C20080E18093C4008EE0C9D0259A86E02C
:107E300020E33CEF91E0309385002093840096BBD3
:107E4000B09BFECF1D9AA8958150A9F7CC24DD24C4
:107E500088248394B5E0AB2EA1E19A2EF3E0BF2EE7
:107E6000A2D0813461F49FD0082FAFD0023811F036
:107E7000013811F484E001C083E08DD089C08234E0
:107E800011F484E103C0853419F485E0A6D080C0E4
:107E9000853579F488D0E82EFF2485D0082F10E0AE
:107EA000102F00270E291F29000F111F8ED06801E7
:107EB0006FC0863521F484E090D080E0DECF843638
:107EC00009F040C070D06FD0082F6DD080E0C81688
:107ED00080E7D80618F4F601B7BEE895C0E0D1E017
:107EE00062D089930C17E1F7F0E0CF16F0E7DF06D8
:107EF00018F0F601B7BEE89568D007B600FCFDCFD4
:107F0000A601A0E0B1E02C9130E011968C91119780
:107F100090E0982F8827822B932B1296FA010C0160
:107F200087BEE89511244E5F5F4FF1E0A038BF0790
:107F300051F7F601A7BEE89507B600FCFDCF97BE46
:107F4000E89526C08437B1F42ED02DD0F82E2BD052
:107F50003CD0F601EF2C8F010F5F1F4F84911BD097
:107F6000EA94F801C1F70894C11CD11CFA94CF0C13
:107F7000D11C0EC0853739F428D08EE10CD085E9AC
:107F80000AD08FE07ACF813511F488E018D01DD067
:107F900080E101D065CF982F8091C00085FFFCCF94
:107FA0009093C60008958091C00087FFFCCF809118
:107FB000C00084FD01C0A8958091C6000895E0E648
:107FC000F0E098E1908380830895EDDF803219F02E
:107FD00088E0F5DFFFCF84E1DECF1F93182FE3DFCA
:107FE0001150E9F7F2DF1F91089580E0E8DFEE27F6
:047FF000FF270994CA
:027FFE00040479
:0400000300007E007B
:00000001FF