:100000000C9462000C948A000C948A000C948A0070
:100010000C948A000C948A000C948A000C941303AC
:100020000C948A000C948A000C948A000C948A0028
:100030000C948A000C948A000C948A000C948A0018
:100040000C94C9020C948A000C9415020C94EF01D4
:100050000C948A000C948A000C948A000C948A00F8
:100060000C948A000C948A000000000023002600F3
:10007000290000000000240027002A0000000000E2
:10008000250028002B0004040404040404040202D4
:100090000202020203030303030301020408102007
:1000A0004080010204081020010204081020000012
:1000B0000008000201000003040700000000000027
:1000C00000007C1111241FBECFEFD8E0DEBFCDBFF2
:1000D00023E0A4ECB1E001C01D92AE39B207E1F714
:1000E00011E0A0E0B1E0E2E1F9E202C005900D927A
:1000F000A43CB107D9F710E0C2E6D0E004C02197D4
:10010000FE010E947C14C136D107C9F70E94B406D3
:100110000C9487140C940000089580E090E00895FA
:10012000FC01538D448D252F30E0842F90E0821BFD
:10013000930B541710F0CF96089501970895FC0182
:10014000918D828D981761F0828DDF01A80FB11D0E
:100150005D968C91928D9F5F9F73928F90E0089532
:100160008FEF9FEF0895FC01918D828D981731F0EC
:10017000828DE80FF11D858D90E008958FEF9FEF40
:100180000895FC01918D228D892F90E0805C9F4F16
:10019000821B91098F739927089586EE91E00E9442
:1001A000C10021E0892B09F420E0822F0895FC0191
:1001B000848DDF01A80FB11DA35ABF4F2C91848DF0
:1001C00090E001968F739927848FA689B7892C9325
:1001D000A089B1898C91837080648C93938D848D78
:1001E000981306C00288F389E02D80818F7D80837B
:1001F0000895EF92FF920F931F93CF93DF93EC013B
:1002000081E0888F9B8D8C8D981305C0E889F989D2
:10021000808185FD26C0F62E0B8D10E00F5F1F4FED
:100220000F731127E02E8C8DE8120CC00FB607FC5F
:10023000FACFE889F989808185FFF5CFCE010E9448
:10024000D700F1CF8B8DFE01E80FF11DE35AFF4F70
:10025000F0829FB7F8940B8FEA89FB8980818062D6
:100260000AC09FB7F894EE89FF896083E889F9890D
:1002700080818370806480839FBF81E090E0DF9104
:10028000CF911F910F91FF90EF900895CF93DF933F
:10029000EC01888D8823C9F0EA89FB89808185FD7E
:1002A00005C0A889B9898C9186FD0FC00FB607FCDF
:1002B000F5CF808185FFF2CFA889B9898C9185FF20
:1002C000EDCFCE010E94D700E7CFDF91CF91089507
:1002D00080E090E0892B29F00E94CD0081110C94E0
:1002E00000000895833081F028F4813099F0823045
:1002F000A1F008958730A9F08830B9F08430D1F4A6
:10030000809180008F7D03C0809180008F778093E3
:100310008000089584B58F7702C084B58F7D84BD39
:1003200008958091B0008F7703C08091B0008F7DD9
:100330008093B00008951F93CF93DF93282F30E070
:10034000F901E255FF4F8491F901E656FF4FD49130
:10035000F901EA57FF4FC491CC23C1F0162F811148
:100360000E947201EC2FF0E0EE0FFF1FE458FF4FE8
:10037000A591B4919FB7F894111104C08C91D095B8
:10038000D82302C0EC91DE2BDC939FBFDF91CF918D
:100390001F9108953FB7F8948091D2019091D301B5
:1003A000A091D401B091D50126B5A89B05C02F3FDF
:1003B00019F00196A11DB11D3FBFBA2FA92F982F8B
:1003C0008827820F911DA11DB11DBC01CD0142E006
:1003D000660F771F881F991F4A95D1F708951F92BE
:1003E0000F920FB60F9211242F933F934F935F9369
:1003F0006F937F938F939F93AF93BF93EF93FF93ED
:1004000086EE91E00E94D700FF91EF91BF91AF91EE
:100410009F918F917F916F915F914F913F912F911C
:100420000F900FBE0F901F9018951F920F920FB64E
:100430000F9211242F938F939F93EF93FF93E0914B
:10044000F601F091F7018081E091FC01F091FD014E
:1004500082FD12C090818091FF018F5F8F73209188
:100460000002821751F0E091FF01F0E0EA51FE4FE7
:10047000958F8093FF0101C08081FF91EF919F9143
:100480008F912F910F900FBE0F901F901895CF93C3
:10049000DF9390E0FC01E656FF4F2491FC01EA5700
:1004A000FF4F8491882361F190E0880F991FFC0130
:1004B000EE58FF4FC591D491FC01E458FF4FA59130
:1004C000B491611109C09FB7F89488812095822367
:1004D0008883EC912E230BC0623061F49FB7F894AF
:1004E0008881322F309583238883EC912E2B2C9397
:1004F0009FBF06C08FB7F894E8812E2B28838FBF4B
:10050000DF91CF9108958F929F92AF92BF92CF9239
:10051000DF92EF92FF926B017C010E94CA014B01B6
:100520005C01C114D104E104F104F1F00E94CA019C
:10053000DC01CB0188199909AA09BB09883E9340BF
:10054000A105B10570F321E0C21AD108E108F10854
:1005500088EE880E83E0981EA11CB11CC114D10442
:10056000E104F10419F7DDCFFF90EF90DF90CF9019
:10057000BF90AF909F908F9008952FB7F89460919F
:10058000CE017091CF018091D0019091D1012FBF08
:1005900008951F920F920FB60F9211242F933F933D
:1005A0008F939F93AF93BF938091CE019091CF0192
:1005B000A091D001B091D1013091CD0123E0230F62
:1005C0002D3720F40196A11DB11D05C026E8230F8B
:1005D0000296A11DB11D2093CD018093CE01909371
:1005E000CF01A093D001B093D1018091D20190911D
:1005F000D301A091D401B091D5010196A11DB11DE7
:100600008093D2019093D301A093D401B093D501EC
:10061000BF91AF919F918F913F912F910F900FBEFE
:100620000F901F9018951F920F920FB60F921124E2
:100630002F933F934F935F936F937F938F939F93EA
:10064000AF93BF93CF93DF93EF93FF932091CC02AF
:1006500030E0F901E255FF4F8491F901E656FF4F72
:10066000D491F901EA57FF4FC491CC2379F081115D
:100670000E947201EC2FF0E0EE0FFF1FE859FF4FD0
:10068000A591B491EC91ED2381E009F480E02091F3
:10069000D0023091D1022F5F3F4F3093D10220938F
:1006A000D0029091CF02953618F096E09093CB024D
:1006B0009091CB029430C9F128F4923069F09330D4
:1006C000D1F05EC0953009F451C0963009F058C0A1
:1006D00091E090939C0351C0811152C02091D002AF
:1006E0003091D1022436310508F442C010929C03A7
:1006F0001092CF021CC0813009F042C0E091CF02BD
:1007000091E09E0F9093CF02F0E02091D0023091C3
:10071000D102EE0FFF1FE553FD4F30872783109264
:10072000D1021092D00294E029C0811117C0E0914B
:10073000CF0291E09E0F9093CF02F0E02091D00283
:100740003091D102EE0FFF1FE553FD4F3087278315
:100750001092D1021092D00293E010C02091D002EA
:100760003091D1022536310558F007C0811108C0FB
:100770001092D1021092D00203C095E09093CB0268
:100780009091CE029923B9F081110AC08091CD02D7
:10079000882321F08091CD0261E009C02D9A0BC021
:1007A0008091CD02882331F08091CD0260E00E94DB
:1007B0009B0101C02D98FF91EF91DF91CF91BF91E7
:1007C000AF919F918F917F916F915F914F913F91E9
:1007D0002F910F900FBE0F901F901895CF92DF9220
:1007E000EF92FF92CF93DF93EC01072E000C880B62
:1007F000990B0E94C7116B017C0120E030E040E4BE
:100800005FE30E94261220E030E048E452E40E94B8
:100810009D130E940F14C617D707D4F020E030E0D4
:1008200040EA5FE3C701B6010E94261220E030E0F3
:1008300048E452E40E949D1320E030E040E85FE38A
:100840000E9431130E940F1421E06C177D070CF4F5
:1008500020E0822F90E0DF91CF91FF90EF90DF902A
:10086000CF9008950F931F93CF93DF9360E085E0BF
:100870000E949B010091C401C0E0D0E010E0B801EB
:100880000C2E02C0759567950A94E2F7617084E0BA
:100890000E949B0161E086E00E949B0160E086E08F
:1008A0000E949B012196C830D10549F761E085E09F
:1008B000DF91CF911F910F910C949B0197FF16C070
:1008C0009C012095309581E090E0A0E0B0E004C06C
:1008D000880F991FAA1FBB1F2A95D2F78095909168
:1008E000C40189238093C4010C94320460E00C9409
:1008F0009B010F931F9397FF1AC08095909541E03D
:1009000050E060E070E08A019B0104C0000F111FFD
:10091000221F331F8A95D2F7D901C8012091C40143
:10092000822B8093C4011F910F910C94320461E0DB
:100930001F910F910C949B01EF92FF920F931F93C5
:10094000CF93DF9396E0E92E91E0F92E00E010E0DE
:10095000C0E0D0E0C8018C0F9D1F039749F4FE0151
:10096000EE0FFF1FEE0DFF1D808191810E94790423
:100970002196C430D10571F70F5F1F4F8CE0E80E50
:10098000F11C0530110521F7DF91CF911F910F91D7
:10099000FF90EF900895CF92DF92EF92FF920F9326
:1009A0001F93CF93DF9396E0E92E91E0F92EC0E0FC
:1009B000D0E000E010E06E01CC0CDD1CCE0CDF1CA2
:1009C000C017D10729F4F601808191810E94790432
:1009D0000F5F1F4F0430110599F72196FCE0EF0ED1
:1009E000F11CC530D10529F7DF91CF911F910F91EF
:1009F000FF90EF90DF90CF9008950F931F93CF93C8
:100A0000DF93C6E0D1E000E010E0FE01E00FF11F4F
:100A1000808191810E945E040E5F1F4F0830110596
:100A2000A1F72C9681E0C234D80769F7DF91CF9106
:100A30001F910F9108956C0106E011E0C0E0D0E035
:100A400046010D2C000CAA08BB08C0FD1BC053E0DA
:100A5000E52EF12CF701EE0FFF1FE00FF11F808153
:100A600091810E947904C501B4010E94830281E052
:100A7000E81AF10878F72196045F1F4FC530D105B9
:100A800021F715C0E12CF12CF801EE0DFF1D80813E
:100A900091810E947904C501B4010E94830282E021
:100AA000E80EF11C88E0E816F10471F7E4CFD7FEF8
:100AB00003C08FEFC81AD80AD594C79406E311E093
:100AC000C4E0D0E046010D2C000CAA08BB087E0152
:100AD00081E0E822FF24C0FD1CC0F801EE0DFF1DDF
:100AE000808191810E945E04C501B4010E9483024D
:100AF00082E0E80EF11C88E0E816F10471F7219716
:100B00000C501109CF3F8FEFD80709F7CC0CDD1C33
:100B100093CF23E0E22EF12CF701EE0FFF1FE00F41
:100B2000F11F808191810E945E04C501B4010E9481
:100B3000830281E0E81AF10878F7E1CFCF92DF92E3
:100B4000EF92FF920F931F93CF93DF936C017A0183
:100B50008B01C0E0D0E0CE15DF0581F0D8016D91AA
:100B60008D01D601ED91FC910190F081E02DC6013F
:100B70000995892B11F02196EECF7E01C701DF91F7
:100B8000CF911F910F91FF90EF90DF90CF9008953C
:100B90000E9482148F929F92AF92BF92CF92DF9267
:100BA000EF92FF920F931F93CF93DF93FC0120816D
:100BB0003181E091E201F091E3012E173F070CF043
:100BC0004FC0F901EE0FFF1FA091E001B091E101CC
:100BD000EA0FFB1FA080B180217033276901F1E08B
:100BE000CF26232B19F42CE93FEF02C024E630E096
:100BF0007A018B01EC014901840E951EB401C501F7
:100C00000E94EE03892B99F48E0C9F1CB401C50140
:100C10000E94EE03892B71F4B701680D791DC5019F
:100C20000E94EE03892BF9F023E030E005C021E0BB
:100C300030E002C022E030E0F8018081918101962D
:100C4000821793071CF49183808308C0F8011182F6
:100C5000108288819981019699838883C60105C095
:100C600081E090E002C08FEF9FEFDF91CF911F9165
:100C70000F91FF90EF90DF90CF90BF90AF909F903B
:100C80008F9008956115710579F0FB0101900020A6
:100C9000E9F73197AF01461B570BDC01ED91FC9151
:100CA0000280F381E02D099480E090E008958F9216
:100CB0009F92AF92BF92EF92FF920F931F93CF93A9
:100CC000DF93CDB7DEB7A1970FB6F894DEBF0FBEA6
:100CD000CDBF7C01FA01CB0119A2223008F42AE031
:100CE0008E010F5D1F4F822E912CA12CB12CBF01C4
:100CF000A50194010E94F412F901CA0101501109E1
:100D00006A3014F4605D01C0695CD8016C93232BD8
:100D1000242B252B61F7B801C7010E944206A1963A
:100D20000FB6F894DEBF0FBECDBFDF91CF911F91FC
:100D30000F91FF90EF90BF90AF909F908F9008958C
:100D40000F931F93CF93DF93EC010E9442068C0117
:100D500063E671E0CE010E944206800F911FDF9191
:100D6000CF911F910F910895CF93DF93CDB7DEB749
:100D700028970FB6F894DEBF0FBECDBF789484B528
:100D8000826084BD84B5816084BD85B5826085BD87
:100D900085B5816085BD80916E00816080936E0015
:100DA0001092810080918100826080938100809107
:100DB00081008160809381008091800081608093B8
:100DC00080008091B10084608093B1008091B00078
:100DD00081608093B00080917A00846080937A0073
:100DE00080917A00826080937A0080917A0081609D
:100DF00080937A0080917A00806880937A001092C4
:100E0000C1001092C7021092C8021092C90210923B
:100E1000CA021092850210928602109287021092E6
:100E200088020E94BD026B017C014B015C0128EB32
:100E3000820E2BE0921EA11CB11C0E94BD026C15FB
:100E40007D058E059F0528F086169706A806B9062B
:100E5000A0F786EE91E09093C6028093C502E091E0
:100E6000F601F091F70182E08083E091F201F091C8
:100E7000F3011082E091F401F091F50180E18083AB
:100E80001092FE01E091FA01F091FB0186E080836F
:100E9000E091F801F091F901808180618083E09117
:100EA000F801F091F901808188608083E091F80178
:100EB000F091F901808180688083E091F801F091E0
:100EC000F90180818F7D80830E94BD02609385023D
:100ED00070938602809387029093880264E571E0A4
:100EE0008091C5029091C6020E9442060E94BD02F6
:100EF0006B017C014B015C013AE0830E911CA11C4B
:100F0000B11C0E94BD026C157D058E059F0528F061
:100F100086169706A806B906A0F711E01093990265
:100F2000F89482E08093B0008093B10094E69093AF
:100F3000B3001092B2008093700078948093CB023B
:100F40001092CF028091CC0260E00E944702109381
:100F5000CE0261E08DE00E94470261E085E00E94E0
:100F6000470261E084E00E94470261E086E00E945F
:100F7000470200E010E00730110521F061E0802F0A
:100F80000E9447020F5F1F4F01311105A1F7109218
:100F9000C4010E94320410E2212E312C0E94BD02B5
:100FA000672B682B692B41F40E94BD0262307105EA
:100FB0008105910508F40DC10E94BD020091C9018F
:100FC0001091CA012091CB013091CC0160177107BB
:100FD0008207930740F46093C9017093CA0180931C
:100FE000CB019093CC010091C9011091CA012091CD
:100FF000CB013091CC016B017C01C01AD10AE20A0D
:10100000F30A970186010A3F11052105310508F40D
:10101000E0C06093C9017093CA018093CB019093A3
:10102000CC0184EF91E0A0E0B0E080939102909336
:101030009202A0939302B0939402109295021092A0
:1010400096021092970210929802809189029091D4
:101050008A02A0918B02B0918C0280938D029093B2
:101060008E02A0938F02B09390020E94BD02609303
:10107000890270938A0280938B0290938C020E9463
:10108000BD026093850270938602809387029093DD
:1010900088020E94BD026B017C0166E671E08091CE
:1010A000C5029091C6020E9442062AE041E050E04B
:1010B00060E070E08091C5029091C6020E945706E0
:1010C0006DE671E08091C5029091C6020E944206D1
:1010D0002AE0B701A6018091C5029091C6020E9444
:1010E00057066FE671E08091C5029091C6020E949A
:1010F00042068091890290918A02A0918B02B09160
:101100008C02B701A601481B590B6A0B7B0B2AE026
:101110008091C5029091C6020E9457066FE671E069
:101120008091C5029091C6020E94420640918902B8
:1011300050918A0260918B0270918C0280918D0295
:1011400090918E02A0918F02B0919002481B590B92
:101150006A0B7B0B2AE08091C5029091C6020E9427
:10116000570665E971E08091C5029091C6020E9420
:1011700042060E94BD02AB01BC012AE08091C5027B
:101180009091C6020E94570661E771E08091C50206
:101190009091C6020E94A0060E94BD024B015C0114
:1011A0006B017C0192E0C90ED11CE11CF11C0E9474
:1011B000BD02681579058A059B0508F0B1C20E9439
:1011C000BD026093890270938A0280938B02909390
:1011D0008C02A2EDB2E0B093E101A093E001809116
:1011E000CF0290E09093E3018093E20180919C0311
:1011F00090E09093E5018093E4018091CB028530EB
:1012000009F08BC28091D4029091D502885891093F
:101210008D35910588F48091CF02843041F480911E
:10122000D6029091D7028097479708F499C280918F
:10123000CF02843408F07BC28091CF028A3108F457
:10124000EAC28091D2029091D302843F914058F437
:101250001092DF011092DE018BE090E09093D701B5
:101260008093D60157C08091D4029091D502859782
:101270004B9708F0D0C2E8EDF2E082E090E0C12C9C
:10128000D12C7601AC014F5F5F4F2091CF0230E04F
:10129000421753075CF4DF0112972D913C912750C0
:1012A00031092730310508F49AC2CA010197959592
:1012B00087959093DF018093DE010C972CF41092B8
:1012C000DF011092DE01A7C2C092DA01D092DB01E9
:1012D000E092DC01F092DD0184E090E00AC0C0926F
:1012E000DA01D092DB01E092DC01F092DD018BE0CB
:1012F00090E09093D7018093D6018091DA0190918C
:10130000DB01A091DC01B091DD018F3F9F4FAF4F1A
:10131000BF4F81F48091C5019091C601A091C70192
:10132000B091C8018093DA019093DB01A093DC01B6
:10133000B093DD018091DA019091DB01A091DC0195
:10134000B091DD018D39E2E69E07EFEFAE07B10502
:1013500009F4B6C008F057C08F3C20E392072FEF86
:10136000A207B10509F4DEC018F58F3EE0E19E0743
:10137000EFEFAE07B10509F4ACC148F48D3F9240E0
:10138000AF4FB10509F0B4C164E971E0ADC1873E6A
:1013900038E193073FEFA307B10509F4E0C08D3DA5
:1013A0009242AF4FB10509F0A3C16FE871E09CC153
:1013B000853BFAE49F07FFEFAF07B10509F48FC142
:1013C00088F4873C38E393073FEFA307B10509F49E
:1013D00083C18D3B9244AF4FB10509F089C16DEBDC
:1013E00071E082C18D3AF2E59F07FFEFAF07B105CB
:1013F00009F478C1853A9A45AF4FB10509F078C133
:101400006BEB71E071C18D3532EA93073FEFA307B3
:10141000B10509F452C048F58538FAE79F07FFEF98
:10142000AF07B10509F448C178F487399846AF4F42
:10143000B10509F05DC16EE971E086EE91E00E94B0
:10144000A00606E011E06BC08F36E0E99E07EFEFE3
:10145000AE07B10509F440C087369849AF4FB105D2
:1014600009F046C160EA71E03FC18D3322EC92077A
:101470002FEFA207B10539F180F48735E8EA9E071E
:10148000EFEFAE07B10529F18F34904BAF4FB105A7
:1014900009F02EC165EA71E027C18F3120EE920775
:1014A0002FEFA207B10591F08D31924EAF4FB105EC
:1014B00009F01EC163E871E017C168E771E014C16B
:1014C0006CE771E011C163E971E00EC16AE971E096
:1014D0000BC167E971E008C16FE771E005C1F80170
:1014E000EE0DFF1DC080D180C6010E94790464EF1B
:1014F00071E080E090E00E948302C6010E945E04D9
:1015000082E0E80EF11C98E0E916F10441F7045F6F
:101510001F4FA2E4B1E0A017B10709F4D7C0E12C36
:10152000F12CDDCF61EB71E086EE91E00E94A00628
:101530000E94FD040E94FD040E94CB0468EE73E04B
:1015400080E090E00E9483020E94FD040E949C04BF
:1015500068EE73E080E090E00E948302B7C063EB26
:1015600071E086EE91E00E94A0060E94FD040E94B8
:10157000CB0468EE73E080E090E00E9483020E945A
:10158000FD0481E090E00E94790488EF9FEF0E94C3
:1015900079048AEF9FEF0E9479048DEF9FEF0E94FC
:1015A00079048FEF9FEF0E9479048AE090E00E9417
:1015B000790468EE73E080E090E00E9483020E946C
:1015C000FD0482E090E00E9479048BEF9FEF0E947F
:1015D00079048CEF9FEF0E94790489E090E00E94EB
:1015E000790468EE73E080E090E00E9483020E943C
:1015F000FD0483E090E00E94790488E090E00E947E
:10160000790468EE73E080E090E00E9483020E941B
:10161000FD040E949C0468EE73E080E090E00E946C
:1016200083020E94FD048BEF9FEF0E9479048EEFEE
:101630009FEF0E94790489E090E00E9479048CEF8A
:101640009FEF0E94790489EF9FEF0E94790482E066
:1016500090E00E94790468EE73E080E090E00E94E0
:1016600083020E94FD0488EF9FEF0E94790481E0CD
:1016700090E00E9479048AE090E00E9479048FEF64
:101680009FEF0E94790468EE73E080E090E00E9492
:1016900083020E94FD0480E090E00E9479048BE0C8
:1016A00090E00E94790468EE73E080E090E00E9490
:1016B00083020E94FD040AC065EB71E086EE91E0B2
:1016C0000E94A00684E690E00E941B050E94FD0493
:1016D0000FC067EB71E008C069EB71E005C06FEB0C
:1016E00071E002C061EC71E086EE91E00E94A0061C
:1016F0008091DA019091DB01A091DC01B091DD01D4
:101700008093C5019093C601A093C701B093C8010F
:1017100082E08093CB021092CF020E9468013ECCFF
:10172000C616D706E806F90608F041CD48CD8091E7
:10173000D6029091D702825491098E9708F07CCD01
:1017400080E090E040E050E0BA01FC01E852FD4F3B
:1017500020813181295031092930310580F06CCD4B
:101760008091D8029091D9020997099708F05FCD2E
:101770001092DF011092DE01E3E0F0E0B8C5FC0159
:10178000E652FD4F20813181275131092231310547
:10179000C8F4440F551F661F771F416004968038B8
:1017A000910599F63092DF012092DE014093DA0133
:1017B0005093DB016093DC017093DD01B3E0CB2E2D
:1017C000D12CB5C320813181265031092730310514
:1017D00008F032CD440F551F661F771FDFCF2081E1
:1017E0003181235131092F30310570F02081318151
:1017F0002A5031092930310570F4CC0CDD1CEE1C67
:10180000FF1C029634963ECDCC0CDD1CEE1CFF1C5A
:101810006894C0F8F6CF8091CF028A3108F45AC09C
:101820008091D2029091D3028032934008F410CD7F
:101830008091D4029091D502C697869708F04AC04D
:101840008091D6029091D702C697869708F042C041
:10185000EAEDF2E023E030E0C12CD12C7601C901A1
:1018600001964091CF0250E08417950754F4DF01B0
:1018700012974D915C914C5051094B30510588F0B5
:1018800001C0C9010197959587959093DF018093D9
:10189000DE010C970CF023CD1092DF011092DE01D7
:1018A00019C08081918185974B9750F4CC0CDD1C39
:1018B000EE1CFF1C6894C0F82E5F3F4F3496CFCFCC
:1018C000808191810C970A9728F4CC0CDD1CEE1CCA
:1018D000FF1CF2CF8091CF02823208F457C0809172
:1018E000D4029091D5020697079708F04FC0E8ED13
:1018F000F2E082E090E040E050E0BA018C010F5F3E
:101900001F4F2091CF0230E002171307C4F4DF010C
:1019100012972D913C9111972E51310927313105A4
:1019200038F5440F551F661F771F416020813181B4
:101930003496235031092530310530F1C801019723
:10194000959587959093DF018093DE0140972CF465
:101950001092DF011092DE0119C04093DA0150931A
:10196000DB016093DC017093DD018CE090E0C1CC81
:101970002D913C912C5031092B30310538F4440F16
:10198000551F661F771FD2CF0296B8CF1C821B82CD
:1019900081E090E09A8389838091CF028D3078F442
:1019A0001C821B8281E090E09A8389838091E2010E
:1019B0009091E301181619060CF46CC0C4C049E7F5
:1019C00053E0BE016D5F7F4FCE0101960E94CA05B4
:1019D000892B31F749E753E0BE016D5F7F4FCE01A0
:1019E00001960E94CA050197D9F649E753E0BE0166
:1019F0006D5F7F4FCE0101960E94CA05892B81F64B
:101A0000812C912C540100E010E08091CF0290E0F5
:101A100029813A812817390774F549E753E0BE0157
:101A20006D5F7F4FCE0101960E94CA057C0149E798
:101A300053E0BE016D5F7F4FCE0101960E94CA0543
:101A4000A1E0EA16F10451F4892B09F0A9CF880C22
:101A5000991CAA1CBB1C689480F80AC0EF2809F0E6
:101A60009FCF019709F09CCF880C991CAA1CBB1C26
:101A70000F5F1F4FCACF1093DF010093DE018092EA
:101A8000DA019092DB01A092DC01B092DD0181E0ED
:101A900090E02FCCE091E001F091E10182E090E054
:101AA0009A8389838281938189974E9708F04BC0EE
:101AB00003E0C02ED12CDA82C982848195810B97F4
:101AC0000A9708F040C04CEB51E0BE016D5F7F4FBC
:101AD000CE0101960E94CA05892BA9F54CEB51E075
:101AE000BE016D5F7F4FCE0101960E94CA0501972E
:101AF00051F5812C912C540100E010E02091E2017D
:101B00003091E30189819A81821793070CF026C1F5
:101B10004CEB51E0BE016D5F7F4FCE0101960E94FC
:101B2000CA056C010330110509F0E2C04CEB51E02D
:101B3000BE016D5F7F4FCE0101960E94CA05C81697
:101B4000D90609F4D5C0E091E001F091E10182816C
:101B50009381C6978697E0F4848195814B9745974A
:101B6000B8F4DF0116967F0126ECE20EF11C20E0AE
:101B700030E040E050E060E070E080E090E00D9107
:101B80001C911197095011090830110508F4F5C08E
:101B90008091CF02893370F18281938189579109B5
:101BA0008335910508F427C125C0D90112966D919E
:101BB0007C911397665171096131710508F047C135
:101BC000D701C601880F991FAA1FBB1F6C017D0199
:101BD0006894C0F84E5F5F4F2C5F3F4F4B33510509
:101BE00009F418C1D9016D917C916A50710969306D
:101BF0007105D8F28091CF02823231F482819381D3
:101C00000A97099708F433C1828193818957910912
:101C100083359105D0F48091CF028132B0F0848178
:101C20009581CA97899788F49F012A5F3F4FC12CFD
:101C3000D12C760143E050E0D9016D917C916A503E
:101C400071096930710508F428C1828193818C542F
:101C50009109C59778F48091CF02843031F4848162
:101C600095818097479708F480C18091CF02843492
:101C700008F062C18091CF02863460F18281938145
:101C80000C970B9708F4BAC125C0D90112966D9133
:101C90007C9113976E5171096731710508F0C9C1C4
:101CA000D701C601880F991FAA1FBB1F6C017D01B8
:101CB0006894C0F84E5F5F4F2C5F3F4F453451052D
:101CC00009F4C6C1D9016D917C916C5071096B30DA
:101CD0007105D8F28091CF02883508F42CC2828138
:101CE0009381855891098B35910508F4CCC123C2A5
:101CF0004CEB51E0BE016D5F7F4FCE0101960E941B
:101D0000CA057C010330110569F44CEB51E0BE01BA
:101D10006D5F7F4FCE0101960E94CA05E816F90655
:101D200009F011CFC114D10459F4EA94EF2809F055
:101D30000ACF880C991CAA1CBB1C689480F80BC0A5
:101D4000CA94CD2809F0FFCEEF2809F0FCCE880C0C
:101D5000991CAA1CBB1C0F5F1F4FD0CE1093DF0134
:101D60000093DE018092DA019092DB01A092DC0107
:101D7000B092DD0182E090E0BCCA12960D911C91F8
:101D80001397015111090D30110538F501E00E943A
:101D9000451421601496AE15BF0509F0F0CE2093CE
:101DA000DA013093DB014093DC015093DD0100E266
:101DB0000E9460142093D8013093D90105E0C02E11
:101DC000D12CD092D701C092D60180E3E82EF12C1D
:101DD000F092DF01E092DE0190CA12960D911C9103
:101DE0001397045011090530110508F0D1CE01E018
:101DF0000E944514CFCF84819581CA97899708F0B6
:101E0000F9CE9F012A5F3F4FC12CD12C760143E0D0
:101E100050E0E8CE9F012A583F4FD9012D913C91C7
:101E20002A5031092930310508F0E4CE2CE130E0A8
:101E30003093DF012093DE01C092DA01D092DB0102
:101E4000E092DC01F092DD018AE090E052CAD90113
:101E500012966D917C9113976650710967307105E8
:101E600008F0C8CECC0CDD1CEE1CFF1CB3CE2091BC
:101E7000CF02CF01820F911D820F911DDC011297BD
:101E80008D919C910A97099708F0BECE1092DF01C0
:101E90001092DE01E6E0F0E02AC2D90112966D91BF
:101EA0007C911397665171096131710580F5D701F5
:101EB000C601880F991FAA1FBB1F6C017D01689482
:101EC000C0F84E5F5F4F2C5F3F4F4332510509F022
:101ED000B3CE9F012A5B3F4FD9012D913C912A50EF
:101EE00031092930310508F0B0CEE0E1F0E0F0939F
:101EF000DF01E093DE01C092DA01D092DB01E092D3
:101F0000DC01F092DD0156E0C52ED12C10C0D901C4
:101F100012966D917C911397665071096730710527
:101F200008F093CECC0CDD1CEE1CFF1CCACFD09267
:101F3000D701C092D601E1C9848195818954910964
:101F4000C39708F097CE9F012A5F3F4FBF016A57A2
:101F50007F4FC12CD12C7601D9014D915C91495014
:101F600051094930510570F085CE868197810997D6
:101F7000099708F07ACE1092DF011092DE01E7E0B7
:101F8000F0E0B5C1D90112964D915C91139746517D
:101F900051094131510510F5D701C601880F991F2C
:101FA000AA1FBB1F6C017D016894C0F82C5F3F4FD6
:101FB0006217730789F63092DF012092DE01C0922A
:101FC000DA01D092DB01E092DC01F092DD01E7E082
:101FD000F0E0F093D701E093D6018FC9D9011296B2
:101FE0004D915C911397465051094730510508F0C7
:101FF00041CECC0CDD1CEE1CFF1CD8CF848195811A
:102000000997099708F066CE868197818C974F973C
:1020100008F060CE8085918589974D9708F05ACE5B
:102020009F01265F3F4FC12CD12C760145E050E047
:1020300049CE12966D917C91139769507109693060
:10204000710508F047CECC0CDD1CEE1CFF1C32CE17
:102050009F0126573F4FD9012D913C912C503109BA
:102060002B30310508F036CE3092DF012092DE01B0
:10207000C092DA01D092DB01E092DC01F092DD0146
:1020800088E090E036C984819581825491098E97C9
:1020900008F051C08F01045C1F4F8DE190E020E0FB
:1020A00030E04091CF0250E0445051098417950729
:1020B000ACF4A80142505109DA014D915C914950AC
:1020C00051094830510510F136C0D8014D915C914D
:1020D000485151094231510558F1CB01019795956D
:1020E00087959093DF018093DE018A9724F1C901DF
:1020F000330FAA0BBB0B8093DA019093DB01A09303
:10210000DC01B093DD0189E090E0F3C8BC016F5FB2
:102110007F4FD8014D915C9147505109473051058F
:10212000A0F6220F331F216002960C5F1F4FB9CF1C
:10213000220F331FF9CF8091CF028032E1F48281E8
:10214000938106970697B8F484819581099709973A
:1021500090F49F012A5F3F4FBF01625C7F4FC12C0B
:10216000D12C7601D9014D915C91465051094630F0
:10217000510508F481C0C090E201D090E301D886F7
:10218000CF829601263031050CF4C2CA8F010E5F52
:102190001F4FB5ECCB2EBDE9DB2EBCE1EB2EB1E839
:1021A000FB2E83E090E09E838D83D80114966D9181
:1021B0007C911597AD90BC9080E090E00E94C51195
:1021C0002B013C01B50180E090E00E94C5114B015C
:1021D0005C012DEC3CEC4CE45FE30E9426129B0179
:1021E000AC01C301B2010E94C01187FD17C02DECE4
:1021F0003CEC4CE45FE3C301B2010E9426129B0158
:10220000AC01C501B4010E94C011E82F880FFF0B7B
:10221000EE27FF0FEE1FFF27319602C0E0E0F0E04F
:10222000A701960163E971E080E091E00E94E41269
:102230006F01FF0FEE08FF08C626D726E826F9260D
:10224000ED81FE813196FE83ED830E5F1F4F2F815E
:1022500038852E173F0709F0A8CFC092DA01D09237
:10226000DB01E092DC01F092DD013092DF0120928F
:10227000DE018FEF9FEF3DC8D90112964D915C9121
:102280001397495151094331510508F5D701C6014A
:10229000880F991FAA1FBB1F6C017D016894C0F8AD
:1022A0002C5F3F4F2617370709F05CCF2EE030E058
:1022B0003093DF012093DE01C092DA01D092DB017E
:1022C000E092DC01F092DD018FE090E012C8D901CC
:1022D00012964D915C91139749505109493051051F
:1022E00008F049CFCC0CDD1CEE1CFF1CD9CFF093BD
:1022F000D701E093D6010EC8E6EEF1E01382128218
:1023000088EE93E0A0E0B0E084839583A683B78352
:1023100086E491E09183808385EC90E095878487C3
:1023200084EC90E09787868780EC90E0918B808B9F
:1023300081EC90E0938B828B82EC90E0958B848B88
:1023400086EC90E0978B868B118E128E138E148EF6
:10235000E3E8F2E016821782108611861286138651
:102360001486158616861786108A118A128A138A91
:10237000148A158AEBECF2E087E0818313820895DA
:102380000E94021208F481E00895E89409C097FBC6
:102390003EF490958095709561957F4F8F4F9F4F3C
:1023A0009923A9F0F92F96E9BB279395F695879580
:1023B00077956795B795F111F8CFFAF4BB0F11F443
:1023C00060FF1BC06F5F7F4F8F4F9F4F16C08823EA
:1023D00011F096E911C0772321F09EE8872F762F20
:1023E00005C0662371F096E8862F70E060E02AF061
:1023F0009A95660F771F881FDAF7880F969587954D
:1024000097F90895990F0008550FAA0BE0E8FEEF21
:1024100016161706E807F907C0F012161306E407A8
:10242000F50798F0621B730B840B950B39F40A26A1
:1024300061F0232B242B252B21F408950A2609F47F
:10244000A140A6958FEF811D811D08950E9439122C
:102450000C94AA120E949C1238F00E94A31220F041
:10246000952311F00C9493120C94991211240C944E
:10247000DE120E94BB1270F3959FC1F3950F50E0DE
:10248000551F629FF001729FBB27F00DB11D639F26
:10249000AA27F00DB11DAA1F649F6627B00DA11DCC
:1024A000661F829F2227B00DA11D621F739FB00D72
:1024B000A11D621F839FA00D611D221F749F3327E2
:1024C000A00D611D231F849F600D211D822F762F7B
:1024D0006A2F11249F5750409AF0F1F088234AF058
:1024E000EE0FFF1FBB1F661F771F881F91505040C4
:1024F000A9F79E3F510580F00C9493120C94DE12C4
:102500005F3FE4F3983ED4F3869577956795B7954A
:10251000F795E7959F5FC1F7FE2B880F911D969564
:10252000879597F9089597F99F6780E870E060E0D4
:1025300008959FEF80EC089500240A94161617065C
:1025400018060906089500240A94121613061406A4
:1025500005060895092E0394000C11F4882352F007
:10256000BB0F40F4BF2B11F460FF04C06F5F7F4FBF
:102570008F4F9F4F089557FD9058440F551F59F0A6
:102580005F3F71F04795880F97FB991F61F09F3F60
:1025900079F087950895121613061406551FF2CF89
:1025A0004695F1DF08C0161617061806991FF1CFD9
:1025B00086957105610508940895E894BB27662700
:1025C0007727CB0197F90895DB018F939F930E94A2
:1025D0001613BF91AF91A29F800D911DA39F900DE7
:1025E000B29F900D11240895A1E21A2EAA1BBB1BC5
:1025F000FD010DC0AA1FBB1FEE1FFF1FA217B307CF
:10260000E407F50720F0A21BB30BE40BF50B661FE4
:10261000771F881F991F1A9469F7609570958095A8
:1026200090959B01AC01BD01CF0108950E9421133B
:10263000A59F900DB49F900DA49F800D911D112416
:102640000895A29FB001B39FC001A39F700D811D8B
:102650001124911DB29F700D811D1124911D0895AB
:102660005058BB27AA270E9448130C94AA120E9414
:102670009C1238F00E94A31220F039F49F3F19F405
:1026800026F40C9499120EF4E095E7FB0C94931247
:10269000E92F0E94BB1258F3BA1762077307840729
:1026A000950720F079F4A6F50C94DD120EF4E09570
:1026B0000B2EBA2FA02D0B01B90190010C01CA01FC
:1026C000A0011124FF27591B99F0593F50F4503EA7
:1026D00068F11A16F040A22F232F342F4427585F99
:1026E000F3CF469537952795A795F0405395C9F7B1
:1026F0007EF41F16BA0B620B730B840BBAF0915069
:10270000A1F0FF0FBB1F661F771F881FC2F70EC007
:10271000BA0F621F731F841F48F4879577956795DA
:10272000B795F7959E3F08F0B0CF9395880F08F0C6
:102730009927EE0F9795879508950E94B1130C94F1
:10274000AA120E94A31258F00E949C1240F029F491
:102750005F3F29F00C94931251110C94DE120C94EB
:1027600099120E94BB1268F39923B1F3552391F398
:10277000951B550BBB27AA2762177307840738F0F0
:102780009F5F5F4F220F331F441FAA1FA9F335D04D
:102790000E2E3AF0E0E832D091505040E695001C01
:1027A000CAF72BD0FE2F29D0660F771F881FBB1FBB
:1027B000261737074807AB07B0E809F0BB0B802D99
:1027C000BF01FF2793585F4F3AF09E3F510578F0C5
:1027D0000C9493120C94DE125F3FE4F3983ED4F312
:1027E000869577956795B795F7959F5FC9F7880F99
:1027F000911D9695879597F90895E1E0660F771FEB
:10280000881FBB1F621773078407BA0720F0621B7B
:10281000730B840BBA0BEE1F88F7E09508950E94A6
:1028200016146894B1110C94DE1208950E94C3121C
:1028300088F09F5798F0B92F9927B751B0F0E1F081
:10284000660F771F881F991F1AF0BA95C9F714C031
:10285000B13091F00E94DD12B1E008950C94DD12C8
:10286000672F782F8827B85F39F0B93FCCF386956A
:1028700077956795B395D9F73EF4909580957095C7
:1028800061957F4F8F4F9F4F08950F93083090F0C1
:10289000982F872F762F652F542F432F322F2227E3
:1028A0000850F4CF220F331F441F551F661F771F98
:1028B000881F991F0A95B2F70F91089597FB10F89A
:1028C000169400080F93083098F00850232F342FE7
:1028D000452F562F672F782F892F902DF4CF0594F1
:1028E0009795879577956795579547953795279548
:1028F0000A95AAF70F910895EE0FFF1F0590F49126
:10290000E02D099481E090E0F8940C948714F894F9
:02291000FFCFF7
:1029120006000400050000000100020003000000A0
:102922000000F8FFF9FFFAFFFBFF00000000FCFFC8
:10293200FDFFFEFFFFFF00000000080009000A0083
:102942000B00000000000C000E000F001000000041
:10295200000000000000F9009E0590004601C10041
:102962009F00B300564D4450565F317C315F564D47
:102972004450560D0A00564D4450455F003A323AD3
:10298200005F564D445045004F464600566F6C203E
:102992002B200046756E63202F2053746F70007CCD
:1029A2003C3C003E3E7C00566F6C202D20003000E7
:1029B2002045512000205374202F2052657074202E
:1029C2000031003200330034003500360037003861
:0429D20000390000C8
:107E0000112484B714BE81FFF0D085E080938100F7
:107E100082E08093C00088E18093C10086E0809377
:107E2000C20080E18093C4008EE0C9D0259A86E02C
:107E300020E33CEF91E0309385002093840096BBD3
:107E4000B09BFECF1D9AA8958150A9F7CC24DD24C4
:107E500088248394B5E0AB2EA1E19A2EF3E0BF2EE7
:107E6000A2D0813461F49FD0082FAFD0023811F036
:107E7000013811F484E001C083E08DD089C08234E0
:107E800011F484E103C0853419F485E0A6D080C0E4
:107E9000853579F488D0E82EFF2485D0082F10E0AE
:107EA000102F00270E291F29000F111F8ED06801E7
:107EB0006FC0863521F484E090D080E0DECF843638
:107EC00009F040C070D06FD0082F6DD080E0C81688
:107ED00080E7D80618F4F601B7BEE895C0E0D1E017
:107EE00062D089930C17E1F7F0E0CF16F0E7DF06D8
:107EF00018F0F601B7BEE89568D007B600FCFDCFD4
:107F0000A601A0E0B1E02C9130E011968C91119780
:107F100090E0982F8827822B932B1296FA010C0160
:107F200087BEE89511244E5F5F4FF1E0A038BF0790
:107F300051F7F601A7BEE89507B600FCFDCF97BE46
:107F4000E89526C08437B1F42ED02DD0F82E2BD052
:107F50003CD0F601EF2C8F010F5F1F4F84911BD097
:107F6000EA94F801C1F70894C11CD11CFA94CF0C13
:107F7000D11C0EC0853739F428D08EE10CD085E9AC
:107F80000AD08FE07ACF813511F488E018D01DD067
:107F900080E101D065CF982F8091C00085FFFCCF94
:107FA0009093C60008958091C00087FFFCCF809118
:107FB000C00084FD01C0A8958091C6000895E0E648
:107FC000F0E098E1908380830895EDDF803219F02E
:107FD00088E0F5DFFFCF84E1DECF1F93182FE3DFCA
:107FE0001150E9F7F2DF1F91089580E0E8DFEE27F6
:047FF000FF270994CA
:027FFE00040479
:0400000300007E007B
:00000001FF